{
  "_format": "hh-sol-artifact-1",
  "contractName": "PredictionMarket",
  "sourceName": "contracts/PredictionMarket.sol",
  "abi": [
    {
      "inputs": [
        {
          "internalType": "address",
          "name": "_priceFeed",
          "type": "address"
        }
      ],
      "stateMutability": "nonpayable",
      "type": "constructor"
    },
    {
      "anonymous": false,
      "inputs": [
        {
          "indexed": true,
          "internalType": "uint256",
          "name": "marketId",
          "type": "uint256"
        },
        {
          "indexed": true,
          "internalType": "address",
          "name": "user",
          "type": "address"
        },
        {
          "indexed": false,
          "internalType": "bool",
          "name": "outcome",
          "type": "bool"
        },
        {
          "indexed": false,
          "internalType": "uint256",
          "name": "amount",
          "type": "uint256"
        }
      ],
      "name": "BetPlaced",
      "type": "event"
    },
    {
      "anonymous": false,
      "inputs": [
        {
          "indexed": true,
          "internalType": "uint256",
          "name": "marketId",
          "type": "uint256"
        },
        {
          "indexed": false,
          "internalType": "string",
          "name": "question",
          "type": "string"
        },
        {
          "indexed": false,
          "internalType": "uint256",
          "name": "endTimestamp",
          "type": "uint256"
        }
      ],
      "name": "MarketCreated",
      "type": "event"
    },
    {
      "anonymous": false,
      "inputs": [
        {
          "indexed": true,
          "internalType": "uint256",
          "name": "marketId",
          "type": "uint256"
        },
        {
          "indexed": false,
          "internalType": "bool",
          "name": "result",
          "type": "bool"
        }
      ],
      "name": "MarketResolved",
      "type": "event"
    },
    {
      "anonymous": false,
      "inputs": [
        {
          "indexed": true,
          "internalType": "address",
          "name": "previousOwner",
          "type": "address"
        },
        {
          "indexed": true,
          "internalType": "address",
          "name": "newOwner",
          "type": "address"
        }
      ],
      "name": "OwnershipTransferred",
      "type": "event"
    },
    {
      "inputs": [
        {
          "internalType": "uint256",
          "name": "",
          "type": "uint256"
        },
        {
          "internalType": "address",
          "name": "",
          "type": "address"
        }
      ],
      "name": "bets",
      "outputs": [
        {
          "internalType": "uint256",
          "name": "",
          "type": "uint256"
        }
      ],
      "stateMutability": "view",
      "type": "function"
    },
    {
      "inputs": [
        {
          "internalType": "uint256",
          "name": "_marketId",
          "type": "uint256"
        }
      ],
      "name": "claimWinnings",
      "outputs": [],
      "stateMutability": "nonpayable",
      "type": "function"
    },
    {
      "inputs": [
        {
          "internalType": "string",
          "name": "_question",
          "type": "string"
        },
        {
          "internalType": "uint256",
          "name": "_endTimestamp",
          "type": "uint256"
        }
      ],
      "name": "createMarket",
      "outputs": [],
      "stateMutability": "nonpayable",
      "type": "function"
    },
    {
      "inputs": [
        {
          "internalType": "uint256",
          "name": "",
          "type": "uint256"
        }
      ],
      "name": "markets",
      "outputs": [
        {
          "internalType": "string",
          "name": "question",
          "type": "string"
        },
        {
          "internalType": "uint256",
          "name": "endTimestamp",
          "type": "uint256"
        },
        {
          "internalType": "uint256",
          "name": "totalAmount",
          "type": "uint256"
        },
        {
          "internalType": "uint256",
          "name": "yesAmount",
          "type": "uint256"
        },
        {
          "internalType": "uint256",
          "name": "noAmount",
          "type": "uint256"
        },
        {
          "internalType": "bool",
          "name": "resolved",
          "type": "bool"
        },
        {
          "internalType": "bool",
          "name": "result",
          "type": "bool"
        }
      ],
      "stateMutability": "view",
      "type": "function"
    },
    {
      "inputs": [],
      "name": "owner",
      "outputs": [
        {
          "internalType": "address",
          "name": "",
          "type": "address"
        }
      ],
      "stateMutability": "view",
      "type": "function"
    },
    {
      "inputs": [
        {
          "internalType": "uint256",
          "name": "_marketId",
          "type": "uint256"
        },
        {
          "internalType": "bool",
          "name": "_outcome",
          "type": "bool"
        }
      ],
      "name": "placeBet",
      "outputs": [],
      "stateMutability": "payable",
      "type": "function"
    },
    {
      "inputs": [],
      "name": "renounceOwnership",
      "outputs": [],
      "stateMutability": "nonpayable",
      "type": "function"
    },
    {
      "inputs": [
        {
          "internalType": "uint256",
          "name": "_marketId",
          "type": "uint256"
        }
      ],
      "name": "resolveMarket",
      "outputs": [],
      "stateMutability": "nonpayable",
      "type": "function"
    },
    {
      "inputs": [
        {
          "internalType": "address",
          "name": "newOwner",
          "type": "address"
        }
      ],
      "name": "transferOwnership",
      "outputs": [],
      "stateMutability": "nonpayable",
      "type": "function"
    }
  ],
  "bytecode": "0x60806040523480156200001157600080fd5b50604051620020fa380380620020fa8339818101604052810190620000379190620001d5565b620000576200004b6200009f60201b60201c565b620000a760201b60201c565b80600360006101000a81548173ffffffffffffffffffffffffffffffffffffffff021916908373ffffffffffffffffffffffffffffffffffffffff1602179055505062000207565b600033905090565b60008060009054906101000a900473ffffffffffffffffffffffffffffffffffffffff169050816000806101000a81548173ffffffffffffffffffffffffffffffffffffffff021916908373ffffffffffffffffffffffffffffffffffffffff1602179055508173ffffffffffffffffffffffffffffffffffffffff168173ffffffffffffffffffffffffffffffffffffffff167f8be0079c531659141344cd1fd0a4f28419497f9722a3daafe3b4186f6b6457e060405160405180910390a35050565b600080fd5b600073ffffffffffffffffffffffffffffffffffffffff82169050919050565b60006200019d8262000170565b9050919050565b620001af8162000190565b8114620001bb57600080fd5b50565b600081519050620001cf81620001a4565b92915050565b600060208284031215620001ee57620001ed6200016b565b5b6000620001fe84828501620001be565b91505092915050565b611ee380620002176000396000f3fe6080604052600436106100865760003560e01c80638da5cb5b116100595780638da5cb5b1461011d5780639ed9c74d14610148578063b1283e7714610164578063f2fde38b146101a7578063f644b3bb146101d057610086565b80636399d03d1461008b578063677bd9ff146100b4578063715018a6146100dd578063883c84c1146100f4575b600080fd5b34801561009757600080fd5b506100b260048036038101906100ad9190611043565b61020d565b005b3480156100c057600080fd5b506100db60048036038101906100d69190611043565b61048e565b005b3480156100e957600080fd5b506100f26108b9565b005b34801561010057600080fd5b5061011b600480360381019061011691906111b6565b6108cd565b005b34801561012957600080fd5b50610132610a0a565b60405161013f9190611253565b60405180910390f35b610162600480360381019061015d91906112a6565b610a33565b005b34801561017057600080fd5b5061018b60048036038101906101869190611043565b610d13565b60405161019e9796959493929190611383565b60405180910390f35b3480156101b357600080fd5b506101ce60048036038101906101c99190611425565b610e07565b005b3480156101dc57600080fd5b506101f760048036038101906101f29190611452565b610e8a565b6040516102049190611492565b60405180910390f35b610215610eaf565b600180549050811061025c576040517f08c379a0000000000000000000000000000000000000000000000000000000008152600401610253906114f9565b60405180910390fd5b600181815481106102705761026f611519565b5b906000526020600020906006020160050160009054906101000a900460ff16156102cf576040517f08c379a00000000000000000000000000000000000000000000000000000000081526004016102c690611594565b60405180910390fd5b600181815481106102e3576102e2611519565b5b906000526020600020906006020160010154421015610337576040517f08c379a000000000000000000000000000000000000000000000000000000000815260040161032e90611600565b60405180910390fd5b6000600360009054906101000a900473ffffffffffffffffffffffffffffffffffffffff1673ffffffffffffffffffffffffffffffffffffffff1663feaf968c6040518163ffffffff1660e01b815260040160a060405180830381865afa1580156103a6573d6000803e3d6000fd5b505050506040513d601f19601f820116820180604052508101906103ca91906116ad565b5050509150506000808213905060018084815481106103ec576103eb611519565b5b906000526020600020906006020160050160006101000a81548160ff021916908315150217905550806001848154811061042957610428611519565b5b906000526020600020906006020160050160016101000a81548160ff021916908315150217905550827f4927fe38919783250023d27e65a3e56b6b5c3e49364e51674a41ef08d62460d9826040516104819190611728565b60405180910390a2505050565b60018054905081106104d5576040517f08c379a00000000000000000000000000000000000000000000000000000000081526004016104cc906114f9565b60405180910390fd5b600181815481106104e9576104e8611519565b5b906000526020600020906006020160050160009054906101000a900460ff16610547576040517f08c379a000000000000000000000000000000000000000000000000000000000815260040161053e9061178f565b60405180910390fd5b60006002600083815260200190815260200160002060003373ffffffffffffffffffffffffffffffffffffffff1673ffffffffffffffffffffffffffffffffffffffff168152602001908152602001600020549050600081116105df576040517f08c379a00000000000000000000000000000000000000000000000000000000081526004016105d690611821565b60405180910390fd5b6000600183815481106105f5576105f4611519565b5b906000526020600020906006020160050160019054906101000a900460ff168015610670575060006002600085815260200190815260200160002060003373ffffffffffffffffffffffffffffffffffffffff1673ffffffffffffffffffffffffffffffffffffffff16815260200190815260200160002054115b8061070757506001838154811061068a57610689611519565b5b906000526020600020906006020160050160019054906101000a900460ff16158015610706575060006002600085815260200190815260200160002060003373ffffffffffffffffffffffffffffffffffffffff1673ffffffffffffffffffffffffffffffffffffffff16815260200190815260200160002054115b5b9050801561085e5760006001848154811061072557610724611519565b5b906000526020600020906006020160050160019054906101000a900460ff16156107b1576001848154811061075d5761075c611519565b5b9060005260206000209060060201600301546001858154811061078357610782611519565b5b906000526020600020906006020160020154846107a09190611870565b6107aa91906118e1565b9050610815565b600184815481106107c5576107c4611519565b5b906000526020600020906006020160040154600185815481106107eb576107ea611519565b5b906000526020600020906006020160020154846108089190611870565b61081291906118e1565b90505b3373ffffffffffffffffffffffffffffffffffffffff166108fc829081150290604051600060405180830381858888f1935050505015801561085b573d6000803e3d6000fd5b50505b60006002600085815260200190815260200160002060003373ffffffffffffffffffffffffffffffffffffffff1673ffffffffffffffffffffffffffffffffffffffff16815260200190815260200160002081905550505050565b6108c1610eaf565b6108cb6000610f2d565b565b6108d5610eaf565b60016040518060e0016040528084815260200183815260200160008152602001600081526020016000815260200160001515815260200160001515815250908060018154018082558091505060019003906000526020600020906006020160009091909190915060008201518160000190816109519190611b1e565b506020820151816001015560408201518160020155606082015181600301556080820151816004015560a08201518160050160006101000a81548160ff02191690831515021790555060c08201518160050160016101000a81548160ff0219169083151502179055505050600180805490506109cd9190611bf0565b7f2d1e9ad45dbe8e898e0374deebf2a661b2ae7c1855d2a29507d584c35d287c7583836040516109fe929190611c24565b60405180910390a25050565b60008060009054906101000a900473ffffffffffffffffffffffffffffffffffffffff16905090565b6001805490508210610a7a576040517f08c379a0000000000000000000000000000000000000000000000000000000008152600401610a71906114f9565b60405180910390fd5b60018281548110610a8e57610a8d611519565b5b906000526020600020906006020160050160009054906101000a900460ff1615610aed576040517f08c379a0000000000000000000000000000000000000000000000000000000008152600401610ae490611594565b60405180910390fd5b60018281548110610b0157610b00611519565b5b9060005260206000209060060201600101544210610b54576040517f08c379a0000000000000000000000000000000000000000000000000000000008152600401610b4b90611ca0565b60405180910390fd5b60003411610b97576040517f08c379a0000000000000000000000000000000000000000000000000000000008152600401610b8e90611d32565b60405180910390fd5b346002600084815260200190815260200160002060003373ffffffffffffffffffffffffffffffffffffffff1673ffffffffffffffffffffffffffffffffffffffff1681526020019081526020016000206000828254610bf79190611d52565b925050819055503460018381548110610c1357610c12611519565b5b90600052602060002090600602016002016000828254610c339190611d52565b925050819055508015610c81573460018381548110610c5557610c54611519565b5b90600052602060002090600602016003016000828254610c759190611d52565b92505081905550610cbe565b3460018381548110610c9657610c95611519565b5b90600052602060002090600602016004016000828254610cb69190611d52565b925050819055505b3373ffffffffffffffffffffffffffffffffffffffff16827f4af71b021e799c62c158bd54636ca8da2fa26115a21a2dc6efe486ec104fd15f8334604051610d07929190611d86565b60405180910390a35050565b60018181548110610d2357600080fd5b9060005260206000209060060201600091509050806000018054610d4690611941565b80601f0160208091040260200160405190810160405280929190818152602001828054610d7290611941565b8015610dbf5780601f10610d9457610100808354040283529160200191610dbf565b820191906000526020600020905b815481529060010190602001808311610da257829003601f168201915b5050505050908060010154908060020154908060030154908060040154908060050160009054906101000a900460ff16908060050160019054906101000a900460ff16905087565b610e0f610eaf565b600073ffffffffffffffffffffffffffffffffffffffff168173ffffffffffffffffffffffffffffffffffffffff1603610e7e576040517f08c379a0000000000000000000000000000000000000000000000000000000008152600401610e7590611e21565b60405180910390fd5b610e8781610f2d565b50565b6002602052816000526040600020602052806000526040600020600091509150505481565b610eb7610ff1565b73ffffffffffffffffffffffffffffffffffffffff16610ed5610a0a565b73ffffffffffffffffffffffffffffffffffffffff1614610f2b576040517f08c379a0000000000000000000000000000000000000000000000000000000008152600401610f2290611e8d565b60405180910390fd5b565b60008060009054906101000a900473ffffffffffffffffffffffffffffffffffffffff169050816000806101000a81548173ffffffffffffffffffffffffffffffffffffffff021916908373ffffffffffffffffffffffffffffffffffffffff1602179055508173ffffffffffffffffffffffffffffffffffffffff168173ffffffffffffffffffffffffffffffffffffffff167f8be0079c531659141344cd1fd0a4f28419497f9722a3daafe3b4186f6b6457e060405160405180910390a35050565b600033905090565b6000604051905090565b600080fd5b600080fd5b6000819050919050565b6110208161100d565b811461102b57600080fd5b50565b60008135905061103d81611017565b92915050565b60006020828403121561105957611058611003565b5b60006110678482850161102e565b91505092915050565b600080fd5b600080fd5b6000601f19601f8301169050919050565b7f4e487b7100000000000000000000000000000000000000000000000000000000600052604160045260246000fd5b6110c38261107a565b810181811067ffffffffffffffff821117156110e2576110e161108b565b5b80604052505050565b60006110f5610ff9565b905061110182826110ba565b919050565b600067ffffffffffffffff8211156111215761112061108b565b5b61112a8261107a565b9050602081019050919050565b82818337600083830152505050565b600061115961115484611106565b6110eb565b90508281526020810184848401111561117557611174611075565b5b611180848285611137565b509392505050565b600082601f83011261119d5761119c611070565b5b81356111ad848260208601611146565b91505092915050565b600080604083850312156111cd576111cc611003565b5b600083013567ffffffffffffffff8111156111eb576111ea611008565b5b6111f785828601611188565b92505060206112088582860161102e565b9150509250929050565b600073ffffffffffffffffffffffffffffffffffffffff82169050919050565b600061123d82611212565b9050919050565b61124d81611232565b82525050565b60006020820190506112686000830184611244565b92915050565b60008115159050919050565b6112838161126e565b811461128e57600080fd5b50565b6000813590506112a08161127a565b92915050565b600080604083850312156112bd576112bc611003565b5b60006112cb8582860161102e565b92505060206112dc85828601611291565b9150509250929050565b600081519050919050565b600082825260208201905092915050565b60005b83811015611320578082015181840152602081019050611305565b60008484015250505050565b6000611337826112e6565b61134181856112f1565b9350611351818560208601611302565b61135a8161107a565b840191505092915050565b61136e8161100d565b82525050565b61137d8161126e565b82525050565b600060e082019050818103600083015261139d818a61132c565b90506113ac6020830189611365565b6113b96040830188611365565b6113c66060830187611365565b6113d36080830186611365565b6113e060a0830185611374565b6113ed60c0830184611374565b98975050505050505050565b61140281611232565b811461140d57600080fd5b50565b60008135905061141f816113f9565b92915050565b60006020828403121561143b5761143a611003565b5b600061144984828501611410565b91505092915050565b6000806040838503121561146957611468611003565b5b60006114778582860161102e565b925050602061148885828601611410565b9150509250929050565b60006020820190506114a76000830184611365565b92915050565b7f4d61726b657420646f6573206e6f742065786973742e00000000000000000000600082015250565b60006114e36016836112f1565b91506114ee826114ad565b602082019050919050565b60006020820190508181036000830152611512816114d6565b9050919050565b7f4e487b7100000000000000000000000000000000000000000000000000000000600052603260045260246000fd5b7f4d61726b657420697320616c7265616479207265736f6c7665642e0000000000600082015250565b600061157e601b836112f1565b915061158982611548565b602082019050919050565b600060208201905081810360008301526115ad81611571565b9050919050565b7f4d61726b657420686173206e6f7420656e646564207965742e00000000000000600082015250565b60006115ea6019836112f1565b91506115f5826115b4565b602082019050919050565b60006020820190508181036000830152611619816115dd565b9050919050565b600069ffffffffffffffffffff82169050919050565b61163f81611620565b811461164a57600080fd5b50565b60008151905061165c81611636565b92915050565b6000819050919050565b61167581611662565b811461168057600080fd5b50565b6000815190506116928161166c565b92915050565b6000815190506116a781611017565b92915050565b600080600080600060a086880312156116c9576116c8611003565b5b60006116d78882890161164d565b95505060206116e888828901611683565b94505060406116f988828901611698565b935050606061170a88828901611698565b925050608061171b8882890161164d565b9150509295509295909350565b600060208201905061173d6000830184611374565b92915050565b7f4d61726b6574206973206e6f74207265736f6c766564207965742e0000000000600082015250565b6000611779601b836112f1565b915061178482611743565b602082019050919050565b600060208201905081810360008301526117a88161176c565b9050919050565b7f596f752068617665206e6f7420706c6163656420612062657420696e2074686960008201527f73206d61726b65742e0000000000000000000000000000000000000000000000602082015250565b600061180b6029836112f1565b9150611816826117af565b604082019050919050565b6000602082019050818103600083015261183a816117fe565b9050919050565b7f4e487b7100000000000000000000000000000000000000000000000000000000600052601160045260246000fd5b600061187b8261100d565b91506118868361100d565b92508282026118948161100d565b915082820484148315176118ab576118aa611841565b5b5092915050565b7f4e487b7100000000000000000000000000000000000000000000000000000000600052601260045260246000fd5b60006118ec8261100d565b91506118f78361100d565b925082611907576119066118b2565b5b828204905092915050565b7f4e487b7100000000000000000000000000000000000000000000000000000000600052602260045260246000fd5b6000600282049050600182168061195957607f821691505b60208210810361196c5761196b611912565b5b50919050565b60008190508160005260206000209050919050565b60006020601f8301049050919050565b600082821b905092915050565b6000600883026119d47fffffffffffffffffffffffffffffffffffffffffffffffffffffffffffffffff82611997565b6119de8683611997565b95508019841693508086168417925050509392505050565b6000819050919050565b6000611a1b611a16611a118461100d565b6119f6565b61100d565b9050919050565b6000819050919050565b611a3583611a00565b611a49611a4182611a22565b8484546119a4565b825550505050565b600090565b611a5e611a51565b611a69818484611a2c565b505050565b5b81811015611a8d57611a82600082611a56565b600181019050611a6f565b5050565b601f821115611ad257611aa381611972565b611aac84611987565b81016020851015611abb578190505b611acf611ac785611987565b830182611a6e565b50505b505050565b600082821c905092915050565b6000611af560001984600802611ad7565b1980831691505092915050565b6000611b0e8383611ae4565b9150826002028217905092915050565b611b27826112e6565b67ffffffffffffffff811115611b4057611b3f61108b565b5b611b4a8254611941565b611b55828285611a91565b600060209050601f831160018114611b885760008415611b76578287015190505b611b808582611b02565b865550611be8565b601f198416611b9686611972565b60005b82811015611bbe57848901518255600182019150602085019450602081019050611b99565b86831015611bdb5784890151611bd7601f891682611ae4565b8355505b6001600288020188555050505b505050505050565b6000611bfb8261100d565b9150611c068361100d565b9250828203905081811115611c1e57611c1d611841565b5b92915050565b60006040820190508181036000830152611c3e818561132c565b9050611c4d6020830184611365565b9392505050565b7f4d61726b65742068617320656e6465642e000000000000000000000000000000600082015250565b6000611c8a6011836112f1565b9150611c9582611c54565b602082019050919050565b60006020820190508181036000830152611cb981611c7d565b9050919050565b7f42657420616d6f756e74206d7573742062652067726561746572207468616e2060008201527f302e000000000000000000000000000000000000000000000000000000000000602082015250565b6000611d1c6022836112f1565b9150611d2782611cc0565b604082019050919050565b60006020820190508181036000830152611d4b81611d0f565b9050919050565b6000611d5d8261100d565b9150611d688361100d565b9250828201905080821115611d8057611d7f611841565b5b92915050565b6000604082019050611d9b6000830185611374565b611da86020830184611365565b9392505050565b7f4f776e61626c653a206e6577206f776e657220697320746865207a65726f206160008201527f6464726573730000000000000000000000000000000000000000000000000000602082015250565b6000611e0b6026836112f1565b9150611e1682611daf565b604082019050919050565b60006020820190508181036000830152611e3a81611dfe565b9050919050565b7f4f776e61626c653a2063616c6c6572206973206e6f7420746865206f776e6572600082015250565b6000611e776020836112f1565b9150611e8282611e41565b602082019050919050565b60006020820190508181036000830152611ea681611e6a565b905091905056fea2646970667358221220d8f5240f6e6049fedab6a0ed3b3d966e404a4dc5eecd4d5b00dc36c05be3be8d64736f6c63430008180033",
  "linkReferences": {},
  "deployedLinkReferences": {}
}