{
  "_format": "hh-sol-artifact-1",
  "contractName": "MockAggregatorV3",
  "sourceName": "contracts/MockAggregatorV3.sol",
  "abi": [
    {
      "inputs": [
        {
          "internalType": "int256",
          "name": "_initialAnswer",
          "type": "int256"
        }
      ],
      "stateMutability": "nonpayable",
      "type": "constructor"
    },
    {
      "inputs": [],
      "name": "decimals",
      "outputs": [
        {
          "internalType": "uint8",
          "name": "",
          "type": "uint8"
        }
      ],
      "stateMutability": "pure",
      "type": "function"
    },
    {
      "inputs": [],
      "name": "description",
      "outputs": [
        {
          "internalType": "string",
          "name": "",
          "type": "string"
        }
      ],
      "stateMutability": "pure",
      "type": "function"
    },
    {
      "inputs": [
        {
          "internalType": "uint80",
          "name": "_roundId",
          "type": "uint80"
        }
      ],
      "name": "getRoundData",
      "outputs": [
        {
          "internalType": "uint80",
          "name": "",
          "type": "uint80"
        },
        {
          "internalType": "int256",
          "name": "",
          "type": "int256"
        },
        {
          "internalType": "uint256",
          "name": "",
          "type": "uint256"
        },
        {
          "internalType": "uint256",
          "name": "",
          "type": "uint256"
        },
        {
          "internalType": "uint80",
          "name": "",
          "type": "uint80"
        }
      ],
      "stateMutability": "view",
      "type": "function"
    },
    {
      "inputs": [],
      "name": "latestAnswer",
      "outputs": [
        {
          "internalType": "int256",
          "name": "",
          "type": "int256"
        }
      ],
      "stateMutability": "view",
      "type": "function"
    },
    {
      "inputs": [],
      "name": "latestRoundData",
      "outputs": [
        {
          "internalType": "uint80",
          "name": "",
          "type": "uint80"
        },
        {
          "internalType": "int256",
          "name": "",
          "type": "int256"
        },
        {
          "internalType": "uint256",
          "name": "",
          "type": "uint256"
        },
        {
          "internalType": "uint256",
          "name": "",
          "type": "uint256"
        },
        {
          "internalType": "uint80",
          "name": "",
          "type": "uint80"
        }
      ],
      "stateMutability": "view",
      "type": "function"
    },
    {
      "inputs": [
        {
          "internalType": "int256",
          "name": "_newAnswer",
          "type": "int256"
        }
      ],
      "name": "setLatestAnswer",
      "outputs": [],
      "stateMutability": "nonpayable",
      "type": "function"
    },
    {
      "inputs": [],
      "name": "version",
      "outputs": [
        {
          "internalType": "uint256",
          "name": "",
          "type": "uint256"
        }
      ],
      "stateMutability": "pure",
      "type": "function"
    }
  ],
  "bytecode": "0x608060405234801561001057600080fd5b5060405161057b38038061057b8339818101604052810190610032919061007a565b80600081905550506100a7565b600080fd5b6000819050919050565b61005781610044565b811461006257600080fd5b50565b6000815190506100748161004e565b92915050565b6000602082840312156100905761008f61003f565b5b600061009e84828501610065565b91505092915050565b6104c5806100b66000396000f3fe608060405234801561001057600080fd5b506004361061007d5760003560e01c806354fd4d501161005b57806354fd4d50146100da5780637284e416146100f85780639a6fc8f514610116578063feaf968c1461014a5761007d565b806304ea97b014610082578063313ce5671461009e57806350d25bcd146100bc575b600080fd5b61009c6004803603810190610097919061024a565b61016c565b005b6100a6610176565b6040516100b39190610293565b60405180910390f35b6100c461017f565b6040516100d191906102bd565b60405180910390f35b6100e2610185565b6040516100ef91906102f1565b60405180910390f35b61010061018e565b60405161010d919061039c565b60405180910390f35b610130600480360381019061012b9190610400565b6101cb565b60405161014195949392919061043c565b60405180910390f35b6101526101ed565b60405161016395949392919061043c565b60405180910390f35b8060008190555050565b60006012905090565b60005481565b60006001905090565b60606040518060400160405280600f81526020017f4d6f636b2041676772656761746f720000000000000000000000000000000000815250905090565b6000806000806000856000544242899450945094509450945091939590929450565b6000806000806000600160005442426001945094509450945094509091929394565b600080fd5b6000819050919050565b61022781610214565b811461023257600080fd5b50565b6000813590506102448161021e565b92915050565b6000602082840312156102605761025f61020f565b5b600061026e84828501610235565b91505092915050565b600060ff82169050919050565b61028d81610277565b82525050565b60006020820190506102a86000830184610284565b92915050565b6102b781610214565b82525050565b60006020820190506102d260008301846102ae565b92915050565b6000819050919050565b6102eb816102d8565b82525050565b600060208201905061030660008301846102e2565b92915050565b600081519050919050565b600082825260208201905092915050565b60005b8381101561034657808201518184015260208101905061032b565b60008484015250505050565b6000601f19601f8301169050919050565b600061036e8261030c565b6103788185610317565b9350610388818560208601610328565b61039181610352565b840191505092915050565b600060208201905081810360008301526103b68184610363565b905092915050565b600069ffffffffffffffffffff82169050919050565b6103dd816103be565b81146103e857600080fd5b50565b6000813590506103fa816103d4565b92915050565b6000602082840312156104165761041561020f565b5b6000610424848285016103eb565b91505092915050565b610436816103be565b82525050565b600060a082019050610451600083018861042d565b61045e60208301876102ae565b61046b60408301866102e2565b61047860608301856102e2565b610485608083018461042d565b969550505050505056fea2646970667358221220e101eb8cff412d959f970a09f8151f2f51631bd63984056aa6fe31c5ffbc848c64736f6c63430008180033",
  "linkReferences": {},
  "deployedLinkReferences": {}
}