{
  "_format": "hh-sol-artifact-1",
  "contractName": "MarketFactory",
  "sourceName": "contracts/MarketFactory.sol",
  "abi": [
    {
      "anonymous": false,
      "inputs": [
        {
          "indexed": false,
          "internalType": "address",
          "name": "marketAddress",
          "type": "address"
        },
        {
          "indexed": false,
          "internalType": "string",
          "name": "question",
          "type": "string"
        }
      ],
      "name": "MarketCreated",
      "type": "event"
    },
    {
      "inputs": [
        {
          "internalType": "string",
          "name": "_question",
          "type": "string"
        },
        {
          "internalType": "uint256",
          "name": "_endTimestamp",
          "type": "uint256"
        },
        {
          "internalType": "string[]",
          "name": "_outcomes",
          "type": "string[]"
        },
        {
          "internalType": "address",
          "name": "_priceFeed",
          "type": "address"
        }
      ],
      "name": "createMarket",
      "outputs": [],
      "stateMutability": "nonpayable",
      "type": "function"
    },
    {
      "inputs": [
        {
          "internalType": "uint256",
          "name": "",
          "type": "uint256"
        }
      ],
      "name": "deployedMarkets",
      "outputs": [
        {
          "internalType": "address",
          "name": "",
          "type": "address"
        }
      ],
      "stateMutability": "view",
      "type": "function"
    },
    {
      "inputs": [],
      "name": "getDeployedMarkets",
      "outputs": [
        {
          "internalType": "address[]",
          "name": "",
          "type": "address[]"
        }
      ],
      "stateMutability": "view",
      "type": "function"
    }
  ],
  "bytecode": "0x608060405234801561001057600080fd5b50612a88806100206000396000f3fe60806040523480156200001157600080fd5b5060043610620000465760003560e01c80631b0bbbd2146200004b5780634ffcbf9c146200006d5780635b51eb88146200008d575b600080fd5b62000055620000c3565b604051620000649190620003f8565b60405180910390f35b6200008b6004803603810190620000859190620006fa565b62000153565b005b620000ab6004803603810190620000a59190620007aa565b620002a8565b604051620000ba9190620007ed565b60405180910390f35b606060008054806020026020016040519081016040528092919081815260200182805480156200014957602002820191906000526020600020905b8160009054906101000a900473ffffffffffffffffffffffffffffffffffffffff1673ffffffffffffffffffffffffffffffffffffffff1681526020019060010190808311620000fe575b5050505050905090565b6000816040516200016490620002e8565b620001709190620007ed565b604051809103906000f0801580156200018d573d6000803e3d6000fd5b5090508073ffffffffffffffffffffffffffffffffffffffff1663c3fc07758686866040518463ffffffff1660e01b8152600401620001cf93929190620009c6565b600060405180830381600087803b158015620001ea57600080fd5b505af1158015620001ff573d6000803e3d6000fd5b505050506000819080600181540180825580915050600190039060005260206000200160009091909190916101000a81548173ffffffffffffffffffffffffffffffffffffffff021916908373ffffffffffffffffffffffffffffffffffffffff1602179055507f89e2b56dfb4365b59dc3a37aaf819ce4937e48be6ab23686edcecacf0124ae0381866040516200029992919062000a11565b60405180910390a15050505050565b60008181548110620002b957600080fd5b906000526020600020016000915054906101000a900473ffffffffffffffffffffffffffffffffffffffff1681565b61200d8062000a4683390190565b600081519050919050565b600082825260208201905092915050565b6000819050602082019050919050565b600073ffffffffffffffffffffffffffffffffffffffff82169050919050565b60006200034f8262000322565b9050919050565b620003618162000342565b82525050565b600062000375838362000356565b60208301905092915050565b6000602082019050919050565b60006200039b82620002f6565b620003a7818562000301565b9350620003b48362000312565b8060005b83811015620003eb578151620003cf888262000367565b9750620003dc8362000381565b925050600181019050620003b8565b5085935050505092915050565b600060208201905081810360008301526200041481846200038e565b905092915050565b6000604051905090565b600080fd5b600080fd5b600080fd5b600080fd5b6000601f19601f8301169050919050565b7f4e487b7100000000000000000000000000000000000000000000000000000000600052604160045260246000fd5b62000485826200043a565b810181811067ffffffffffffffff82111715620004a757620004a66200044b565b5b80604052505050565b6000620004bc6200041c565b9050620004ca82826200047a565b919050565b600067ffffffffffffffff821115620004ed57620004ec6200044b565b5b620004f8826200043a565b9050602081019050919050565b82818337600083830152505050565b60006200052b6200052584620004cf565b620004b0565b9050828152602081018484840111156200054a576200054962000435565b5b6200055784828562000505565b509392505050565b600082601f83011262000577576200057662000430565b5b81356200058984826020860162000514565b91505092915050565b6000819050919050565b620005a78162000592565b8114620005b357600080fd5b50565b600081359050620005c7816200059c565b92915050565b600067ffffffffffffffff821115620005eb57620005ea6200044b565b5b602082029050602081019050919050565b600080fd5b6000620006186200061284620005cd565b620004b0565b905080838252602082019050602084028301858111156200063e576200063d620005fc565b5b835b818110156200068c57803567ffffffffffffffff81111562000667576200066662000430565b5b8086016200067689826200055f565b8552602085019450505060208101905062000640565b5050509392505050565b600082601f830112620006ae57620006ad62000430565b5b8135620006c084826020860162000601565b91505092915050565b620006d48162000342565b8114620006e057600080fd5b50565b600081359050620006f481620006c9565b92915050565b6000806000806080858703121562000717576200071662000426565b5b600085013567ffffffffffffffff8111156200073857620007376200042b565b5b62000746878288016200055f565b94505060206200075987828801620005b6565b935050604085013567ffffffffffffffff8111156200077d576200077c6200042b565b5b6200078b8782880162000696565b92505060606200079e87828801620006e3565b91505092959194509250565b600060208284031215620007c357620007c262000426565b5b6000620007d384828501620005b6565b91505092915050565b620007e78162000342565b82525050565b6000602082019050620008046000830184620007dc565b92915050565b600081519050919050565b600082825260208201905092915050565b60005b838110156200084657808201518184015260208101905062000829565b60008484015250505050565b60006200085f826200080a565b6200086b818562000815565b93506200087d81856020860162000826565b62000888816200043a565b840191505092915050565b6200089e8162000592565b82525050565b600081519050919050565b600082825260208201905092915050565b6000819050602082019050919050565b600082825260208201905092915050565b6000620008ee826200080a565b620008fa8185620008d0565b93506200090c81856020860162000826565b62000917816200043a565b840191505092915050565b6000620009308383620008e1565b905092915050565b6000602082019050919050565b60006200095282620008a4565b6200095e8185620008af565b9350836020820285016200097285620008c0565b8060005b85811015620009b4578484038952815162000992858262000922565b94506200099f8362000938565b925060208a0199505060018101905062000976565b50829750879550505050505092915050565b60006060820190508181036000830152620009e2818662000852565b9050620009f3602083018562000893565b818103604083015262000a07818462000945565b9050949350505050565b600060408201905062000a286000830185620007dc565b818103602083015262000a3c818462000852565b9050939250505056fe60806040523480156200001157600080fd5b506040516200200d3803806200200d8339818101604052810190620000379190620001d5565b620000576200004b6200009f60201b60201c565b620000a760201b60201c565b80600360006101000a81548173ffffffffffffffffffffffffffffffffffffffff021916908373ffffffffffffffffffffffffffffffffffffffff1602179055505062000207565b600033905090565b60008060009054906101000a900473ffffffffffffffffffffffffffffffffffffffff169050816000806101000a81548173ffffffffffffffffffffffffffffffffffffffff021916908373ffffffffffffffffffffffffffffffffffffffff1602179055508173ffffffffffffffffffffffffffffffffffffffff168173ffffffffffffffffffffffffffffffffffffffff167f8be0079c531659141344cd1fd0a4f28419497f9722a3daafe3b4186f6b6457e060405160405180910390a35050565b600080fd5b600073ffffffffffffffffffffffffffffffffffffffff82169050919050565b60006200019d8262000170565b9050919050565b620001af8162000190565b8114620001bb57600080fd5b50565b600081519050620001cf81620001a4565b92915050565b600060208284031215620001ee57620001ed6200016b565b5b6000620001fe84828501620001be565b91505092915050565b611df680620002176000396000f3fe6080604052600436106100865760003560e01c8063715018a611610059578063715018a6146101365780638da5cb5b1461014d578063b1283e7714610178578063c3fc0775146101ba578063f2fde38b146101e357610086565b8063308eba971461008b5780634afe62b5146100c857806360557333146100e4578063677bd9ff1461010d575b600080fd5b34801561009757600080fd5b506100b260048036038101906100ad9190610fa6565b61020c565b6040516100bf9190611008565b60405180910390f35b6100e260048036038101906100dd9190611023565b61023e565b005b3480156100f057600080fd5b5061010b60048036038101906101069190611023565b6104a7565b005b34801561011957600080fd5b50610134600480360381019061012f9190611063565b6106de565b005b34801561014257600080fd5b5061014b6109d8565b005b34801561015957600080fd5b506101626109ec565b60405161016f919061109f565b60405180910390f35b34801561018457600080fd5b5061019f600480360381019061019a9190611063565b610a15565b6040516101b196959493929190611165565b60405180910390f35b3480156101c657600080fd5b506101e160048036038101906101dc91906113e8565b610b16565b005b3480156101ef57600080fd5b5061020a60048036038101906102059190611473565b610c57565b005b600260205282600052604060002060205281600052604060002060205280600052604060002060009250925050505481565b6001805490508210610285576040517f08c379a000000000000000000000000000000000000000000000000000000000815260040161027c906114ec565b60405180910390fd5b600182815481106102995761029861150c565b5b906000526020600020906008020160050160009054906101000a900460ff16156102f8576040517f08c379a00000000000000000000000000000000000000000000000000000000081526004016102ef90611587565b60405180910390fd5b6001828154811061030c5761030b61150c565b5b906000526020600020906008020160010154421061035f576040517f08c379a0000000000000000000000000000000000000000000000000000000008152600401610356906115f3565b60405180910390fd5b600034116103a2576040517f08c379a000000000000000000000000000000000000000000000000000000000815260040161039990611685565b60405180910390fd5b346002600084815260200190815260200160002060003373ffffffffffffffffffffffffffffffffffffffff1673ffffffffffffffffffffffffffffffffffffffff1681526020019081526020016000206000838152602001908152602001600020600082825461041391906116d4565b92505081905550346001838154811061042f5761042e61150c565b5b9060005260206000209060080201600201600082825461044f91906116d4565b92505081905550346001838154811061046b5761046a61150c565b5b90600052602060002090600802016004016000838152602001908152602001600020600082825461049c91906116d4565b925050819055505050565b6104af610cda565b60018054905082106104f6576040517f08c379a00000000000000000000000000000000000000000000000000000000081526004016104ed906114ec565b60405180910390fd5b6001828154811061050a5761050961150c565b5b906000526020600020906008020160050160009054906101000a900460ff1615610569576040517f08c379a000000000000000000000000000000000000000000000000000000000815260040161056090611587565b60405180910390fd5b6001828154811061057d5761057c61150c565b5b9060005260206000209060080201600101544210156105d1576040517f08c379a00000000000000000000000000000000000000000000000000000000081526004016105c890611754565b60405180910390fd5b600182815481106105e5576105e461150c565b5b906000526020600020906008020160030180549050811061063b576040517f08c379a0000000000000000000000000000000000000000000000000000000008152600401610632906117c0565b60405180910390fd5b60018083815481106106505761064f61150c565b5b906000526020600020906008020160050160006101000a81548160ff021916908315150217905550806001838154811061068d5761068c61150c565b5b906000526020600020906008020160060181905550817f6dfc24f0f2fb42e49fb4fa3ffa8abb148cab908a1fb8335b3f128a08b2594af1826040516106d29190611008565b60405180910390a25050565b6001805490508110610725576040517f08c379a000000000000000000000000000000000000000000000000000000000815260040161071c906114ec565b60405180910390fd5b600181815481106107395761073861150c565b5b906000526020600020906008020160050160009054906101000a900460ff16610797576040517f08c379a000000000000000000000000000000000000000000000000000000000815260040161078e9061182c565b60405180910390fd5b60006002600083815260200190815260200160002060003373ffffffffffffffffffffffffffffffffffffffff1673ffffffffffffffffffffffffffffffffffffffff1681526020019081526020016000206000600184815481106107ff576107fe61150c565b5b906000526020600020906008020160060154815260200190815260200160002054905060008111610865576040517f08c379a000000000000000000000000000000000000000000000000000000000815260040161085c906118be565b60405180910390fd5b60006001838154811061087b5761087a61150c565b5b90600052602060002090600802016004016000600185815481106108a2576108a161150c565b5b906000526020600020906008020160060154815260200190815260200160002054600184815481106108d7576108d661150c565b5b906000526020600020906008020160020154836108f491906118de565b6108fe919061194f565b90503373ffffffffffffffffffffffffffffffffffffffff166108fc829081150290604051600060405180830381858888f19350505050158015610946573d6000803e3d6000fd5b5060006002600085815260200190815260200160002060003373ffffffffffffffffffffffffffffffffffffffff1673ffffffffffffffffffffffffffffffffffffffff1681526020019081526020016000206000600186815481106109af576109ae61150c565b5b906000526020600020906008020160060154815260200190815260200160002081905550505050565b6109e0610cda565b6109ea6000610d58565b565b60008060009054906101000a900473ffffffffffffffffffffffffffffffffffffffff16905090565b60018181548110610a2557600080fd5b9060005260206000209060080201600091509050806000018054610a48906119af565b80601f0160208091040260200160405190810160405280929190818152602001828054610a74906119af565b8015610ac15780601f10610a9657610100808354040283529160200191610ac1565b820191906000526020600020905b815481529060010190602001808311610aa457829003601f168201915b5050505050908060010154908060020154908060050160009054906101000a900460ff16908060060154908060070160009054906101000a900473ffffffffffffffffffffffffffffffffffffffff16905086565b6001808160018154018082558091505003906000526020600020905050600060018080549050610b4691906119e0565b9050600060018281548110610b5e57610b5d61150c565b5b9060005260206000209060080201905084816000019081610b7f9190611bc0565b508381600101819055506000816002018190555082816003019080519060200190610bab929190610e24565b5060008160050160006101000a81548160ff02191690831515021790555060008160060181905550338160070160006101000a81548173ffffffffffffffffffffffffffffffffffffffff021916908373ffffffffffffffffffffffffffffffffffffffff160217905550817f2d1e9ad45dbe8e898e0374deebf2a661b2ae7c1855d2a29507d584c35d287c758686604051610c48929190611c92565b60405180910390a25050505050565b610c5f610cda565b600073ffffffffffffffffffffffffffffffffffffffff168173ffffffffffffffffffffffffffffffffffffffff1603610cce576040517f08c379a0000000000000000000000000000000000000000000000000000000008152600401610cc590611d34565b60405180910390fd5b610cd781610d58565b50565b610ce2610e1c565b73ffffffffffffffffffffffffffffffffffffffff16610d006109ec565b73ffffffffffffffffffffffffffffffffffffffff1614610d56576040517f08c379a0000000000000000000000000000000000000000000000000000000008152600401610d4d90611da0565b60405180910390fd5b565b60008060009054906101000a900473ffffffffffffffffffffffffffffffffffffffff169050816000806101000a81548173ffffffffffffffffffffffffffffffffffffffff021916908373ffffffffffffffffffffffffffffffffffffffff1602179055508173ffffffffffffffffffffffffffffffffffffffff168173ffffffffffffffffffffffffffffffffffffffff167f8be0079c531659141344cd1fd0a4f28419497f9722a3daafe3b4186f6b6457e060405160405180910390a35050565b600033905090565b828054828255906000526020600020908101928215610e6c579160200282015b82811115610e6b578251829081610e5b9190611bc0565b5091602001919060010190610e44565b5b509050610e799190610e7d565b5090565b5b80821115610e9d5760008181610e949190610ea1565b50600101610e7e565b5090565b508054610ead906119af565b6000825580601f10610ebf5750610ede565b601f016020900490600052602060002090810190610edd9190610ee1565b5b50565b5b80821115610efa576000816000905550600101610ee2565b5090565b6000604051905090565b600080fd5b600080fd5b6000819050919050565b610f2581610f12565b8114610f3057600080fd5b50565b600081359050610f4281610f1c565b92915050565b600073ffffffffffffffffffffffffffffffffffffffff82169050919050565b6000610f7382610f48565b9050919050565b610f8381610f68565b8114610f8e57600080fd5b50565b600081359050610fa081610f7a565b92915050565b600080600060608486031215610fbf57610fbe610f08565b5b6000610fcd86828701610f33565b9350506020610fde86828701610f91565b9250506040610fef86828701610f33565b9150509250925092565b61100281610f12565b82525050565b600060208201905061101d6000830184610ff9565b92915050565b6000806040838503121561103a57611039610f08565b5b600061104885828601610f33565b925050602061105985828601610f33565b9150509250929050565b60006020828403121561107957611078610f08565b5b600061108784828501610f33565b91505092915050565b61109981610f68565b82525050565b60006020820190506110b46000830184611090565b92915050565b600081519050919050565b600082825260208201905092915050565b60005b838110156110f45780820151818401526020810190506110d9565b60008484015250505050565b6000601f19601f8301169050919050565b600061111c826110ba565b61112681856110c5565b93506111368185602086016110d6565b61113f81611100565b840191505092915050565b60008115159050919050565b61115f8161114a565b82525050565b600060c082019050818103600083015261117f8189611111565b905061118e6020830188610ff9565b61119b6040830187610ff9565b6111a86060830186611156565b6111b56080830185610ff9565b6111c260a0830184611090565b979650505050505050565b600080fd5b600080fd5b7f4e487b7100000000000000000000000000000000000000000000000000000000600052604160045260246000fd5b61120f82611100565b810181811067ffffffffffffffff8211171561122e5761122d6111d7565b5b80604052505050565b6000611241610efe565b905061124d8282611206565b919050565b600067ffffffffffffffff82111561126d5761126c6111d7565b5b61127682611100565b9050602081019050919050565b82818337600083830152505050565b60006112a56112a084611252565b611237565b9050828152602081018484840111156112c1576112c06111d2565b5b6112cc848285611283565b509392505050565b600082601f8301126112e9576112e86111cd565b5b81356112f9848260208601611292565b91505092915050565b600067ffffffffffffffff82111561131d5761131c6111d7565b5b602082029050602081019050919050565b600080fd5b600061134661134184611302565b611237565b905080838252602082019050602084028301858111156113695761136861132e565b5b835b818110156113b057803567ffffffffffffffff81111561138e5761138d6111cd565b5b80860161139b89826112d4565b8552602085019450505060208101905061136b565b5050509392505050565b600082601f8301126113cf576113ce6111cd565b5b81356113df848260208601611333565b91505092915050565b60008060006060848603121561140157611400610f08565b5b600084013567ffffffffffffffff81111561141f5761141e610f0d565b5b61142b868287016112d4565b935050602061143c86828701610f33565b925050604084013567ffffffffffffffff81111561145d5761145c610f0d565b5b611469868287016113ba565b9150509250925092565b60006020828403121561148957611488610f08565b5b600061149784828501610f91565b91505092915050565b7f4d61726b657420646f6573206e6f742065786973742e00000000000000000000600082015250565b60006114d66016836110c5565b91506114e1826114a0565b602082019050919050565b60006020820190508181036000830152611505816114c9565b9050919050565b7f4e487b7100000000000000000000000000000000000000000000000000000000600052603260045260246000fd5b7f4d61726b657420697320616c7265616479207265736f6c7665642e0000000000600082015250565b6000611571601b836110c5565b915061157c8261153b565b602082019050919050565b600060208201905081810360008301526115a081611564565b9050919050565b7f4d61726b65742068617320656e6465642e000000000000000000000000000000600082015250565b60006115dd6011836110c5565b91506115e8826115a7565b602082019050919050565b6000602082019050818103600083015261160c816115d0565b9050919050565b7f42657420616d6f756e74206d7573742062652067726561746572207468616e2060008201527f302e000000000000000000000000000000000000000000000000000000000000602082015250565b600061166f6022836110c5565b915061167a82611613565b604082019050919050565b6000602082019050818103600083015261169e81611662565b9050919050565b7f4e487b7100000000000000000000000000000000000000000000000000000000600052601160045260246000fd5b60006116df82610f12565b91506116ea83610f12565b9250828201905080821115611702576117016116a5565b5b92915050565b7f4d61726b657420686173206e6f7420656e646564207965742e00000000000000600082015250565b600061173e6019836110c5565b915061174982611708565b602082019050919050565b6000602082019050818103600083015261176d81611731565b9050919050565b7f496e76616c69642077696e6e696e67206f7574636f6d6520696e6465782e0000600082015250565b60006117aa601e836110c5565b91506117b582611774565b602082019050919050565b600060208201905081810360008301526117d98161179d565b9050919050565b7f4d61726b6574206973206e6f74207265736f6c766564207965742e0000000000600082015250565b6000611816601b836110c5565b9150611821826117e0565b602082019050919050565b6000602082019050818103600083015261184581611809565b9050919050565b7f596f752068617665206e6f7420706c61636564206120626574206f6e2074686560008201527f2077696e6e696e67206f7574636f6d6520696e2074686973206d61726b65742e602082015250565b60006118a86040836110c5565b91506118b38261184c565b604082019050919050565b600060208201905081810360008301526118d78161189b565b9050919050565b60006118e982610f12565b91506118f483610f12565b925082820261190281610f12565b91508282048414831517611919576119186116a5565b5b5092915050565b7f4e487b7100000000000000000000000000000000000000000000000000000000600052601260045260246000fd5b600061195a82610f12565b915061196583610f12565b92508261197557611974611920565b5b828204905092915050565b7f4e487b7100000000000000000000000000000000000000000000000000000000600052602260045260246000fd5b600060028204905060018216806119c757607f821691505b6020821081036119da576119d9611980565b5b50919050565b60006119eb82610f12565b91506119f683610f12565b9250828203905081811115611a0e57611a0d6116a5565b5b92915050565b60008190508160005260206000209050919050565b60006020601f8301049050919050565b600082821b905092915050565b600060088302611a767fffffffffffffffffffffffffffffffffffffffffffffffffffffffffffffffff82611a39565b611a808683611a39565b95508019841693508086168417925050509392505050565b6000819050919050565b6000611abd611ab8611ab384610f12565b611a98565b610f12565b9050919050565b6000819050919050565b611ad783611aa2565b611aeb611ae382611ac4565b848454611a46565b825550505050565b600090565b611b00611af3565b611b0b818484611ace565b505050565b5b81811015611b2f57611b24600082611af8565b600181019050611b11565b5050565b601f821115611b7457611b4581611a14565b611b4e84611a29565b81016020851015611b5d578190505b611b71611b6985611a29565b830182611b10565b50505b505050565b600082821c905092915050565b6000611b9760001984600802611b79565b1980831691505092915050565b6000611bb08383611b86565b9150826002028217905092915050565b611bc9826110ba565b67ffffffffffffffff811115611be257611be16111d7565b5b611bec82546119af565b611bf7828285611b33565b600060209050601f831160018114611c2a5760008415611c18578287015190505b611c228582611ba4565b865550611c8a565b601f198416611c3886611a14565b60005b82811015611c6057848901518255600182019150602085019450602081019050611c3b565b86831015611c7d5784890151611c79601f891682611b86565b8355505b6001600288020188555050505b505050505050565b60006040820190508181036000830152611cac8185611111565b9050611cbb6020830184610ff9565b9392505050565b7f4f776e61626c653a206e6577206f776e657220697320746865207a65726f206160008201527f6464726573730000000000000000000000000000000000000000000000000000602082015250565b6000611d1e6026836110c5565b9150611d2982611cc2565b604082019050919050565b60006020820190508181036000830152611d4d81611d11565b9050919050565b7f4f776e61626c653a2063616c6c6572206973206e6f7420746865206f776e6572600082015250565b6000611d8a6020836110c5565b9150611d9582611d54565b602082019050919050565b60006020820190508181036000830152611db981611d7d565b905091905056fea2646970667358221220f952c81d03d355caf208dcd391cd5073347d013bb535f6937c8eb805d824115a64736f6c63430008180033a2646970667358221220e7821ccf34ece18d934739c6ea084775603cfb8b4bc98f8a7e6fc0cfdda4c16f64736f6c63430008180033",
  "linkReferences": {},
  "deployedLinkReferences": {}
}